:020000040800F2
:10000000680A0020B5030008F5030008F50300089E
:1000100000000000000000000000000000000000E0
:10002000000000000000000000000000F5030008D0
:100030000000000000000000F5030008F7030008BE
:10004000F5030008F5030008F5030008F5030008B0
:10005000F5030008F5030008F5030008F5030008A0
:10006000F5030008F5030008F5030008F503000890
:10007000F5030008F5030008F5030008F503000880
:10008000F5030008F5030008F5030008F503000870
:10009000F5030008F5030008F5030008F503000860
:1000A000F5030008F5030008F5030008F503000850
:0400B000F50300084C
:1000B40002B4714649084900095C49008E4402BCF7
:1000C4007047C046002243088B4274D303098B4215
:1000D4005FD3030A8B4244D3030B8B4228D3030C14
:1000E4008B420DD3FF22090212BA030C8B4202D3B6
:1000F4001212090265D0030B8B4219D300E0090ADE
:10010400C30B8B4201D3CB03C01A5241830B8B42E6
:1001140001D38B03C01A5241430B8B4201D34B03CF
:10012400C01A5241030B8B4201D30B03C01A524134
:10013400C30A8B4201D3CB02C01A5241830A8B42B9
:1001440001D38B02C01A5241430A8B4201D34B02A2
:10015400C01A5241030A8B4201D30B02C01A524106
:10016400CDD2C3098B4201D3CB01C01A52418309BA
:100174008B4201D38B01C01A524143098B4201D3F4
:100184004B01C01A524103098B4201D30B01C01A1F
:100194005241C3088B4201D3CB00C01A5241830899
:1001A4008B4201D38B00C01A524143088B4201D3C6
:1001B4004B00C01A5241411A00D201465241104626
:1001C4007047FFE701B5002000F0F0F802BDC0461B
:1001D4000029F7D076E7704703460B437FD400220B
:1001E40043088B4274D303098B425FD3030A8B42C7
:1001F40044D3030B8B4228D3030C8B420DD3FF2231
:10020400090212BA030C8B4202D31212090265D0FE
:10021400030B8B4219D300E0090AC30B8B4201D3B1
:10022400CB03C01A5241830B8B4201D38B03C01AF8
:100234005241430B8B4201D34B03C01A5241030B6F
:100244008B4201D30B03C01A5241C30A8B4201D320
:10025400CB02C01A5241830A8B4201D38B02C01ACB
:100264005241430A8B4201D34B02C01A5241030A42
:100274008B4201D30B02C01A5241CDD2C3098B4227
:1002840001D3CB01C01A524183098B4201D38B01A4
:10029400C01A524143098B4201D34B01C01A524147
:1002A40003098B4201D30B01C01A5241C3088B428C
:1002B40001D3CB00C01A524183088B4201D38B0077
:1002C400C01A524143088B4201D34B00C01A524119
:1002D400411A00D201465241104670475DE0CA0FF0
:1002E40000D04942031000D34042534000229C46B0
:1002F40003098B422DD3030A8B4212D3FC228901BA
:1003040012BA030A8B420CD3890192118B4208D38F
:10031400890192118B4204D389013AD0921100E0F1
:100324008909C3098B4201D3CB01C01A5241830905
:100334008B4201D38B01C01A524143098B4201D332
:100344004B01C01A524103098B4201D30B01C01A5D
:100354005241C3088B4201D3CB00C01A52418308D7
:100364008B4201D38B00C01A5241D9D243088B422D
:1003740001D34B00C01A5241411A00D201466346D0
:1003840052415B10104601D34042002B00D5494234
:10039400704763465B1000D3404201B5002000F073
:1003A40005F802BD0029F8D016E770477047C0462B
:1003B4000A480B490B4A002302E0D458C4500433C2
:1003C400C4188C42F9D308480849002201E00260AD
:1003D40004308842FBD302F0CDF8FEE70000002091
:1003E40004000020183400080400002068020020E3
:1003F400FEE7704701220D4B19680A431A60022276
:1004040019681142FCD0102009490860D9690A43CF
:10041400DA6100210722074B19609A62064ADA6200
:1004240001225A6119611A607047C04600100240E7
:100434000020024000040040E70300000023F0B560
:1004440001251E000849094C834200D1F0BD0A6908
:100454002A42FCD00E612268054F01322260054A0F
:1004640001331760F0E7C046000400400400002098
:10047400AAAA00000030004012232D4AF0B52D49ED
:1004840013602D4B802619602C4B2D4958682D4C38
:1004940008402D492D4D014359602D482D49F60141
:1004A40008608021186849040143802019602A49A2
:1004B400800425601F68074202D05F68374202D17A
:1004C40001390029F5D11C68244904420CD124487F
:1004D4000860102111605A680D398A435A601A68FD
:1004E40020490A401A60F0BD1F4808601F4920488F
:1004F400086058681F490860D86A1F490860186B6B
:100504001E49086018681E4908605968490406D4E1
:10051400032059688143596010211160DFE70021ED
:100524002F22184B19609A622E3A5A611961D9E741
:1005340000200240111100AA4000002000100240D7
:10054400FCFFC2FF0030004002001000AAAA000015
:10055400222200BB44000020400D0300480000207C
:10056400555500EEFFFFFFFE333300CC4C00002056
:10057400444400DD500000205400002058000020B6
:100584005C0000200004004001212F4BF0B59A6963
:100594002E4C0A439A618022D869520502432C48A2
:1005A400DA6102680327224002608022294C2A4D26
:1005B40020682A4E90432060294C2A60206890438A
:1005C4002060284C206810432060274C226030684B
:1005D400B8430843306025487F1806683E430660E8
:1005E40040BF20BF226020BF0668BE430660286863
:1005F4009043286022601A681143196002211C4A42
:100604001868084202D1013A002AF9D10222D969B4
:1006140000200A430721DA61164A106091621649E4
:10062400D162012151611061116080229C695201E3
:1006340022439A61114B124A18609A62114ADA6293
:10064400596118611960F0BD00100240FF0FFFFFEF
:100654000C0001400004014004040140007000400B
:10066400080401400C0401401404014010ED00E0B2
:10067400400D030000040040E7030000002C01408B
:100684003F1F0000FFFF000080220D4B52019969BB
:1006940080200A4300219A610A4AC00111605B6804
:1006A40003405842434108485B42034007481B1833
:1006B4009362074BD3620123536111611360704746
:1006C40000100240002C0140C063FFFF7FBB00000C
:1006D400FFFF00003F2801D84000704743B2002BC1
:1006E40004DB7F2340384000181AF6E7BF2804D8FB
:1006F40080384000404200B2EFE7024B4000C0188F
:10070400F9E7C04601FEFFFFF0B50224264885B094
:1007140001F02AFF0022254864420460244803347F
:10072400046094464B204421224B234C1A60234BF3
:1007340040321A600393502320606446204F214EB8
:1007440038602148316001602049214D0A60214A06
:100754002B601360204BA1B20093022204233F209C
:10076400083400F029FEA02CF4D1F82439682402BE
:1007740018230422022089B2009400F01DFE1F23D6
:100784003168042200937A2089B2073B00F014FEFA
:10079400039B29681868042389B21A0080B2009464
:1007A40000F00AFE05B0F0BD60EA0000240000205D
:1007B400200000201C000020180000202C00002035
:1007C400340000203000002014000020100000201D
:1007D400280000200C00002008400000F0B5002490
:1007E400C84A89B01378022002331370C64B04221E
:1007F4005B6A9BB20493C54B1968182389B20094B1
:1008040000F0DAFDC24B042219687A20182389B259
:10081400009400F0D1FDBF4BBF4D18680423296834
:100824001A0089B280B2009400F0C6FD2968BB4B5F
:1008340002223F2089B20093042300F0BDFD00F0A2
:1008440025FFB74BA04203D01A7851424A411A708F
:100854001B78B44CB44F002B00D1F4E023683D68FE
:100864000C3B9D4200DBE9E001353D600023002D97
:1008740002DB882D01DD88233B60AC4922680B68CC
:1008840018000C30824200DBEBE0013B0B60002BD4
:1008940000DBEBE000230B60A54BA64D039303990B
:1008A4002B680968A44E5B182B603368D218002AA1
:1008B40000DCE0E0226023689B2B09DD9C23FA2006
:1008C400236033680A215B428000336001F0E0FA60
:1008D400039B1B68002B18DA2A68062A15DC21689A
:1008E4003A68081D904210DB183291420DDC072251
:1008F400FA202A60039A5B421360904A0A21136823
:1009040080000133136001F0C3FA89490B68002B9E
:1009140014DD2A68752A11DD844A20681268041DD2
:1009240094420BDB1832904208DCFA2075225B42B9
:100934000B6080000A212A6001F0AAFA1F2439689A
:1009440018230422022089B2009400F035FD774E6A
:1009540004223168182389B27A20009400F02CFD17
:10096400684B1D782800FFF7B5FE05902800553028
:10097400C0B2FFF7AFFE563D0400E8B2FFF7AAFE8F
:100984000300684A5B10116803926410059A3233BD
:100994000A34DBB2E4B25210DB08A4083232640138
:1009A400DB02D2B2634D2343D20813432868009379
:1009B400042389B21A0080B200F0FEFCFA21534BE2
:1009C4003A6889001A603268514B06AE1A602A6888
:1009D400504B00251A60039A4F4B12681A604A4B19
:1009E4005C6A049BE41AA4B22000FFF76BFB0A21A3
:1009F40080B2FFF7EDFB3031317020006421FFF746
:100A040061FB0A2180B2FFF7E3FB303171702000F3
:100A14000A21FFF757FB0A2180B2FFF7D9FB3031D7
:100A2400B17020000A21FFF7D3FB3031F17035712A
:100A340006ABEB5C002B28D109B0F0BD9D4200DC75
:100A440014E7013D11E700F017FE051E01D004254F
:100A54006D4200F007FE002800D004353B68ED1815
:100A640003E7824200DC12E701330FE7882B00DC46
:100A740012E788230FE7FA2000225B420A21800054
:100A84002260336001F004FA15E7202B01D101350F
:100A9400CEE71A00303AD1B2092922D805245443AA
:100AA400274BE4180026EB009BB204930027A35DB8
:100AB4000393049B039AD8190223DB1B1A411300E6
:100AC400012213405B429BB20093B1B2130080B287
:100AD400013700F071FC032FEBD10136052EE5D16F
:100AE400D5E71A00413AD1B2192903D80524544351
:100AF400144BD6E7613BDAB2114C192AD2D805243B
:100B04005C43F5E708000020002C01401800002099
:100B140014000020100000200C00002008400000F9
:100B240000000020280000203400002030000020B5
:100B3400240000202C000020200000201C000020A5
:100B4400BC2C0008EE2C00080023F0B51A00612725
:100B5400FF2435260D25390051430D4821408039A5
:100B6400C152310051430B4821408039C152290000
:100B74005143094821400131C15240200749013203
:100B8400C85207491030C8520233282AE3D1F0BDB5
:100B94007801002028010020D800002088000020CF
:100BA40038000020F0B58BB000F024FD954E041EF3
:100BB400954D0ED0307800280BD10100A02380225F
:100BC400009000F0F9FB287803210130FFF7EAFBDD
:100BD40029702B7834700393012B00D184E0022B0D
:100BE40000D185E0002B3CD0884A13780133137080
:100BF4000BB0F0BD854BE1B21A78854853195218F1
:100C0400DBB2D2B28756C2565B18DBB2C356BF18EA
:100C1400FF18FAB213000600563B5532DBB2D2B2CB
:100C2400F35CB25C803B803ADBB2D2B2DB08920860
:100C34005201DB021343FF221740F25DA0B2803A57
:100C4400D2B2D208134300930123A9B21A0001348B
:100C540000F0B2FB802CCDD10135A02DC4D00024EE
:100C6400C8E7039DFBE7694B69491A782B006B437E
:100C74009B195B11D31812195219DBB2D2B28A56DE
:100C8400CB5628009B18DAB29C46130032326433E8
:100C9400DBB2D2B2CB5C8A5C803B803ADBB2D2B2AC
:100CA400DB0892085201DB02134362463A408A5C35
:100CB4004030803AD2B2D208134300930A230399F6
:100CC4001A0080B20A3500F077FB422DCBD10A34EA
:100CD400502C00D188E723002600402550339BB2D6
:100CE40066436D420393BEE75024FF276442F2E754
:100CF4000026484B484D0693484B494F0593494BB2
:100D04000493059B1988069B1888002300930333DA
:100D14001A0000F051FB2C88063C24B22C80012CD4
:100D240015DC3A4B5B2019781123FF24B2B25043EF
:100D34004B431B1823400498803B03801D234B43E3
:100D440039214A439B182340803B3B802C80049BE1
:100D540021000020185EC001FFF73EFA40300790E2
:100D64007F2809D80023F85E2100C001FFF734FA78
:100D7400503008909F2824D9244B2922187817230F
:100D8400B1B24A4343439B18FF22049C1340803B67
:100D940023800B234343432041435B181340803B90
:100DA4003B802A80069B013602330693059B02355D
:100DB40002330593049B023702330493282EA0D1F7
:100DC40012E7E3430322DBB22F2C00DD039A6946CA
:100DD400DC08098CE402A44609916946888B6146C3
:100DE4001C0964010C439B092343009309991300D4
:100DF40000F0E2FA069B079A1A80059B089A1A806B
:100E0400D0E7C046C9010020CA010020C801002063
:100E1400702D000888000020D80000203800002031
:100E240028010020780100200222054B9968114214
:100E3400FCD0044A1070802299681142FCD170479A
:100E4400002001400C200140022303498A681A4211
:100E5400FCD0024B18707047002001400C20014068
:100E6400802210B5024B12049A61FFF7DDFF10BD1A
:100E7400000C0140802210B5024B9A61FFF7D4FFA9
:100E840010BDC046000C014083233E499B008A6983
:100E940010B513438B613C4B3C481A6802401A60FE
:100EA400802218685200024310201A605A68824354
:100EB4005A60802252039A611A68354802401A60C7
:100EC40088221868120102431A601A6A31480240E3
:100ED40028201A625A6882435A60CC229868120108
:100EE40002439A601A682C4802401A60A0221868CB
:100EF400D2010243C0201A605A6882435A60F02229
:100F04009868120202439A60244A1068800080089C
:100F1400106080201468C00520431060204C506885
:100F240020405060C02094680006204390608020D8
:100F34000002906180209861403898610423886998
:100F440003438B611368174803401360A823106898
:100F54005B01034370201360536883435360E023B1
:100F6400DB039361496880230A00DB011A401942BC
:100F740000D01822D1239B0013430B4A1360002393
:100F8400536010BD00100240000C0140FFFCFFFF45
:100F94003FF3FFFFFF0F0FFFFF0FFFFF00080140AC
:100FA400FF7FFFFFFFC0FFFF00200140F8B50700EF
:100FB40016000D001C002A20FFF752FF380AFFF725
:100FC40059FFF8B2FFF756FF300AFFF753FFF0B2AC
:100FD400FFF750FF2B20FFF743FF280AFFF74AFFD4
:100FE400E8B2FFF747FF200AFFF744FFE0B2FFF73C
:100FF40041FF2C20FFF734FFF8BD0000F0B5030AD1
:1010040085B00093C3B201938023204E1B06B361C5
:101014001F4A204BA0241A6040221F4B1F4F1968FF
:101024009143196019680A4300211A601C4B1D4A38
:1010340008001A609F237F22FFF7B8FF80221A4B13
:101044009A611A4B1A4A1A6080251A4B3B60009821
:10105400013DFFF7F9FEADB20198FFF7F5FE002D53
:10106400F5D1013CA4B2002CEED196235B0003938E
:10107400039B5A1E0392002BFAD10F4B0F4A1A609E
:1010840080231B02B36105B0F0BDC04600080140D7
:10109400000011EE900000200020014000300040CC
:1010A40094000020000022EE000C01409800002073
:1010B400000033EEAAAA00009C000020000044EEC9
:1010C400F8B54027B84EFFF7DFFEB7610A20FFF7F7
:1010D400B5F98023B54DB64CDB03B3610A20256016
:1010E400FFF7ACF9B7610A20FFF7A8F98023B14EE6
:1010F4001B06B3611120FFF7B3FE25607820FFF7CC
:101104009DF92560FF20FFF7ABFEA520FFF7B2FE97
:101114003E20FFF7A5FE0820FFF7ACFE3A20FFF7BC
:101124009FFE6520FFF7A6FE8220FFF799FE0020B0
:10113400FFF7A0FE9820FFF793FE0020FFF79AFE2A
:101144006320FFF78DFE0F20FFF794FE6420FFF766
:1011540087FE0F20FFF78EFEB420FFF781FE3420B8
:10116400FFF788FEB520FFF77BFE3020FFF782FEF5
:101174008320FFF775FE1320FFF77CFE8620FFF720
:101184006FFE0420FFF776FE8720FFF769FE192023
:10119400FFF770FE8820FFF763FE2F20FFF76AFE3B
:1011A4008920FFF75DFE3620FFF764FE9320FFF7EA
:1011B40057FE6320FFF75EFE9620FFF751FE812065
:1011C400FFF758FEC320FFF74BFE1020FFF752FE37
:1011D400E620FFF745FE0020FFF74CFE9920FFF7BD
:1011E4003FFE0120FFF746FE4420FFF739FE0020B2
:1011F400FFF740FE7020FFF733FE0720FFF73AFEAB
:101204007120FFF72DFE1920FFF734FE7220FFF73F
:1012140027FE1A20FFF72EFE7320FFF721FE13206E
:10122400FFF728FE7420FFF71BFE1920FFF722FEAC
:101234007520FFF715FE1D20FFF71CFE7620FFF733
:101244000FFE4720FFF716FE7720FFF709FE0A205E
:10125400FFF710FE7820FFF703FE0720FFF70AFED2
:101264007920FFF7FDFD4720FFF704FE7A20FFF702
:10127400F7FD0520FFF7FEFD7B20FFF7F1FD0920B8
:10128400FFF7F8FD7C20FFF7EBFD0D20FFF7F2FDE3
:101294007D20FFF7E5FD0C20FFF7ECFD7E20FFF736
:1012A400DFFD0C20FFF7E6FD7F20FFF7D9FD0820C6
:1012B400FFF7E0FDA020FFF7D3FD0B20FFF7DAFDD9
:1012C400A120FFF7CDFD3620FFF7D4FDA220FFF7C4
:1012D400C7FD0920FFF7CEFDA320FFF7C1FD0D20B8
:1012E400FFF7C8FDA420FFF7BBFD0820FFF7C2FDF0
:1012F400A520FFF7B5FD2320FFF7BCFDA620FFF7CF
:10130400AFFD3B20FFF7B6FDA720FFF7A9FD0420A2
:10131400FFF7B0FDA820FFF7A3FD0720FFF7AAFD04
:10132400A920FFF79DFD3820FFF7A4FDAA20FFF7B1
:1013340097FD0A20FFF79EFDAB20FFF791FD1220D9
:10134400FFF798FDAC20FFF78BFD0C20FFF792FD13
:10135400AD20FFF785FD0720FFF78CFDAE20FFF7DA
:101364007FFD2F20FFF786FDAF20FFF779FD0720D3
:10137400FFF780FDFF20FFF773FD0020FFF77AFDE4
:101384003620FFF76DFD9820FFF774FD2920FFF745
:1013940067FD0A20FFF752F880231B02B361002087
:1013A400FFF72CFEF8BDC046000C0140AAAA0000BD
:1013B4000030004000080140F0B587B001930CAB49
:1013C4001B8816001A0ADBB2039380230292402280
:1013D4001C4F1B06BB611C4B1C6894431C601C689F
:1013E40022431A60019B721E013BCB1882189BB2E8
:1013F40092B2FFF7DBFD80220024144B9A61019B1B
:101404009C420CD196235B000593059B5A1E0592C2
:10141400002BFAD180231B02BB6107B0F0BD00256D
:101424000B4B0C4A1A60B54202D10134A4B2E6E770
:101434000298FFF709FD01350398FFF705FDADB2EA
:10144400F1E7C0460008014000200140000C0140C3
:1014540000300040AAAA00001022034B002801D04B
:10146400802252039A617047000C01400C23024A07
:1014740091690B439361704700100240704700006C
:101484000E4B0F4A1B6800230E490F4830B51160FC
:10149400036080230D4CDB0325682B432360022467
:1014A4000B4B0568254202D1013B002BF9D1094BB6
:1014B400116018680005000D30BDC04600080140E9
:1014C40000300040AAAA00000008024008080240B8
:1014D400204E0000500802408023164A5B01116828
:1014E4000B43136000230721134A1360134A11604E
:1014F400134A06391160F021106849030143116051
:10150400104A1148116801401160D1680140D1604E
:101514008021D068C9010143D1600C4A13700C4A80
:1015240013700C4A13700C4A13700C4A13700C4A53
:1015340013807047141002403008024038080240FB
:101544000808024000080140FF3FFFFFD1010020CE
:10155400D0010020CF010020CE010020CB010020CB
:10156400CC01002070B51C4D1C4B2C781C70FFF76F
:1015740087FF1B491B4A952817D9E1235B00984232
:101584001FD3DB1898421ED3F533FF3398421CD384
:10159400FA23DB0098421AD300230B70611E8C419E
:1015A4002B701470104A137070BD02232B70002C22
:1015B4000FD1012314700D4A0B70516A0C4A11802B
:1015C400F0E70323F2E70423F0E70123EEE7052322
:1015D400ECE700230B70E6E7D1010020D0010020E6
:1015E400CF010020CE010020CB010020002C0140BF
:1015F400CC010020024B1878431E9841C0B27047BA
:10160400D1010020014B18787047C046CF0100205B
:10161400054B1B78181E05D0044B586A044B1B88D5
:10162400C01A80B27047C046CB010020002C014094
:10163400CC01002010B5FFF723FF10BD034B187831
:10164400013843425841C0B27047C046D10100201E
:10165400034B1878033843425841C0B27047C04620
:10166400D1010020034B1878023843425841C0B2DC
:101674007047C046D1010020034B18780438434218
:101684005841C0B27047C046D1010020034B1878BE
:10169400053843425841C0B27047C046D1010020CA
:1016A4008023114A5B0111680B4313600F4B104AEE
:1016B4001A6004230F4A91690B439361E0230E4A95
:1016C4005B0311680B43136000220C4B1A600C4B34
:1016D40006321A600B4B053A1A60F022196852035D
:1016E4000A431A607047C046141002402C1002408E
:1016F4000438000000100240100802403008024084
:101704003808024008080240C022124B92011968AE
:101714001868F0B502431A6000220F480F4C104DB0
:1017240004602A6080220F4ED20337683A43326045
:1017340002260D4A2F68374202D1013A002AF9D114
:101744000A4A0460106819600005000D312800D8A9
:101754000748F0BD0008014000300040AAAA00007C
:101764000008024008080240204E000050080240D1
:10177400FE0D0000F0B500251E26012787B03300BA
:101784006B43DBB29B08104A0A335B011A43EB003C
:1017940003921A000024123292B205920B4AD31813
:1017A4000493049B20011F55039B0E22009305996B
:1017B400062380B20134FFF7FFFD082CF1D1013577
:1017C400062DDCD107B0F0BD02780000D201002064
:1017D40001220A4B10B51A70094B0A4A1B680A33D6
:1017E40013608C22084B1A60084B8A3A1A60084B23
:1017F400043A1A6000F09EFB10BDC046240200208B
:101804003802002034020020300200202C02002084
:10181400280200203F2801D84000704743B2002B23
:1018240004DB7F2340384000181AF6E7BF2804D8A9
:1018340080384000404200B2EFE7024B4000C0183D
:10184400F9E7C04601FEFFFFF0B50D0087B0039035
:101854000592039B1B78002B01D107B0F0BD039ABE
:1018640001320392202B01D10835F2E71A00303AF5
:10187400D1B2092921D805245443184BE418002671
:101884000027A35D04930223049ADB1B1A4113006F
:1018940001221340059A5B42134000930123E81987
:1018A400B11C1A0089B280B20137FFF785FD032FFE
:1018B400E9D10136052EE3D1D6E71A00413AD1B277
:1018C400192903D805245443054BD7E7613BDAB201
:1018D400024C192AD3D805245C43F5E7B92E000835
:1018E400EB2E000807B541210B480C4AFFF7ACFF6B
:1018F400002364200093142208330221FFF75CFDC7
:10190400074B08481B68002B00D10748FC226E21B6
:10191400D200FFF799FF07BD722E00081F280000B0
:101924003C020020702E00088A2E0008F0B5002525
:101934001E26012787B033006B43DBB29B08104A95
:101944000A335B011A43EB0003921A00002412329B
:1019540092B205920B4AD3180493049B20011F559D
:10196400039B0E2200930599062380B20134FFF7EE
:1019740023FD072CF1D10135082DDCD107B0F0BDD2
:101984000F100000D201002070B50020FFF736FBD5
:101994000023114A114C13603422114D2260114A64
:1019A4002B601370FFF79EFF2B68002B01D1FFF70C
:1019B400E1FE2B68022B01D1FFF7B8FFFFF708FF08
:1019C400094A0A4B12681A60094A0A4B12681A60DB
:1019D400094B22681A6070BD2002002038020020E2
:1019E4003C02002013020020340200201C020020CC
:1019F400300200201802002014020020F0B5002458
:101A0400C74B91B0186818229621069380B204231C
:101A14000094FFF7D1FCC34B1968C34B89B2186813
:101A2400042380B21A000094FFF7C6FCFFF710FEEF
:101A3400BE4C002803D023785A42534123702378A4
:101A4400BB4F002B00D190E0BA4B1B68002B0CDD80
:101A5400B9493A680B680C3A9A427DDD02330B604F
:101A6400002B7DDA0022B44B1A60B44DB44B2E78AF
:101A74000393002E00D189E0AF4B039A1B680A330D
:101A84003B608C231360FFF701FE002809D000237C
:101A940001222B70AB4B1A60A64B033A1A6000F07C
:101AA4003BFA2378002B09D0002301222B70A54B8D
:101AB4001A60A04B033A1A6000F02EFAA24B9C491C
:101AC4001B689F4A002B00D04CE1156809682A1D49
:101AD40008929E4A0491944604310791DC00220046
:101AE4002100624409920022123105910998805C18
:101AF400002800D192E0079E1001B04200DD8DE085
:101B0400060004990E36B14200DD87E00899059E6F
:101B14008E4200DD82E026001836B5427EDC0023CA
:101B24006444A3546A4680B2918A009306330E2219
:101B3400FFF742FC7F4A864C136820685B421360BF
:101B440032235843834B0A21C01880B200F0A0F915
:101B540023680133236069E09A4281DA023B7EE71D
:101B6400682B82DD6822744B7EE7FFF77BFD724DA4
:101B7400002802D02B68043B2B60FFF77DFD002872
:101B840002D02B6804332B602B6869E7694C6D4DD8
:101B9400236839689C46039B2A681B68039851187C
:101BA40063443960036000292EDC3E6052422A609F
:101BB400002B2EDC0023039A1360624650422060FF
:101BC4002568002D00DC79E7912B00DC76E7584B83
:101BD4001868594B021D1B689A4200DA6EE71A0016
:101BE4001832904200DD69E7C01A03210A38FEF773
:101BF400F3FA002800D10138524B039A186092235B
:101C04006D422560136059E77B29D1DD7C21396061
:101C1400CCE7A02BD4DDFFF7DBFD4FE70132082A28
:101C240000D063E70133062B00D057E7464C484EFB
:101C34002068002800D0CFE03368302B11D1FFF7A3
:101C4400DDF902232360FFF74DFE2368002B01D149
:101C5400FFF790FD2368022B01D1FFF767FEFFF722
:101C6400B7FD354B1822186804931F23962180B2C0
:101C740000931B3BFFF7A0FB374B1D78A81CC0B299
:101C84001870FFF7C7FD059028005730C0B2FFF762
:101C9400C1FD543D0400E8B2FFF7BCFD039B059A67
:101CA40019686410431032333234DBB2E4B2521098
:101CB400DB08A4083232DB026401D2B2D208234327
:101CC40013433D6800930423ADB228001A0089B27F
:101CD400FFF772FB3568002D00D090E0302301241B
:101CE40008AA13720821002308AA521813551B4886
:101CF4001B4A0639FFF7A8FDFC222D21D2000AA8B1
:101D0400FFF7A2FD049B069A1B681360084A064B62
:101D140012681A600A4A034B12681A6011B0F0BDC7
:101D240014020020180200201C02002012020020CD
:101D3400340200202802002038020020240200205F
:101D4400300200202C0200203C020020D20100209E
:101D540020020020B80B000013020020792E000896
:101D6400DFF80000022B00D060E70B6815680493CD
:101D7400043307932B1D0893304B00249C46E20048
:101D8400130011006344099300231231059109984B
:101D9400C05C002819D0079E1801B04215DC06006B
:101DA40004990E36B14210DC0899059E8E420CDC73
:101DB40016001836B54208DC00246244D4546B463D
:101DC40080B2998A06230094B1E60133072BDED151
:101DD4000134082CD3D129E7022800D041E7336825
:101DE400682B00D03DE70020FFF708F901232360AA
:101DF40000233360FFF776FDFFF7BCFC25E70024E2
:101E0400132308AA9B1828000A210134E618FEF7B8
:101E1400DFF93031317028000A21FEF753F92E0022
:101E24000500092EECD823000AAA0DA8013B195C71
:101E340011700132002BF9D154E7C046D2010020C1
:101E4400094B1B78002B0DD0084B094A1968114027
:101E54008022D2000A431A602022002801D1802265
:101E640092039A617047C0460100002000080140B7
:101E7400FFF3FFFF082282B0013801D202B070479D
:101E84000192019B591E0191002BFAD1F4E7000045
:101E9400F7B5124B01911B78002B0FD00A21414357
:101EA4000F4889B2FEF70EF905000E4E746AA4B20B
:101EB400736A019A1B1B9BB29A4200D8F7BD6F0844
:101EC4000120FFF7BDFF3800FFF7D4FF0020FFF724
:101ED400B7FF3800FFF7CEFFEAE7C0460100002055
:101EE40040420F00002C0140E92010B5142180006D
:101EF400FFF7CEFFB92014218000FFF7C9FF14219A
:101F04000348FFF7C5FF14210248FFF7C1FF10BDC6
:101F14003E0300006E02000070B5FA249625E4002A
:101F24006D00A0B20221323CFFF7B2FFAC42F8D1FF
:101F340070BD000010B56424A0B20121FFF7A8FF12
:101F4400054B28349C42F7D1A0B201211E3CFFF777
:101F54009FFF1E2CF8D110BDDC050000012210B536
:101F6400054B0648064CD968114202D1DA68DA609A
:101F740010BD0460F7E7C046002002400030004076
:101F8400AAAA000070B50225074C23692B432361DC
:101F940040236061226913432361FFF7DFFF236954
:101FA400AB43236170BDC04600200240044B1A6954
:101FB400120603D5034A5A60034A5A607047C04662
:101FC4000020024023016745AB89EFCD020070B5C4
:101FD4000800072A0FD80A4B0A4955020A4EEB1883
:101FE4006D1819685C680C0C2404B44204D1C9B29D
:101FF400914201D1586870BD083BAB42F1D1FAE778
:10200400F8F10008F8EF000800005AA5F7B506003B
:102014000191072830D8194B0025C4186402FFF732
:10202400C5FF230019685A680A40013207D00135F8
:102034000833402DF6D12000FFF7A4FF0025012727
:10204400ED002D190E4C23693B432361019B6B600A
:10205400FFF784FF2369BB4323612269094B3A4399
:10206400334322612B60FFF779FF2369BB4323616C
:102074008023226913432361F7BDC046780004001E
:102084000020024000005AA507B50A48FEF7B6FF33
:102094000021094B8022080000935023FFF78CF99C
:1020A400C0220020054B52011A60054B1A60054BF3
:1020B40018700EBD45290000E1910000480200207F
:1020C4004402002040020020F0B593B0FFF7C0FAAC
:1020D400D74B002803D01A7851424A411A701B7812
:1020E400002B00D157E1D34BD3489C461B78D34FE8
:1020F40019004031C9B24900095E3D688910491987
:102104000391CF4E5900095E35688910491904912D
:10211400CC49049D069103992D1309130591069941
:10212400C94CED004919059D2268495D01322260C0
:10213400002900D127E1C54A516A00222260C43235
:10214400C90700D5883A9B180022DBB2BF4C616AEC
:10215400C9B24900415E89125B186146DBB20B705B
:10216400520607D1626AD20700D411E103229B18F8
:1021740062461370B54BB04A5B6A9BB20D93AD4B8C
:1021840019780B004033DBB25B009B5E49000B9374
:102194008B5EAF4A0B995A430C93AE4B12134B43CD
:1021A4000621080050430F90D0011B13121A0A9203
:1021B400DA0159439B1A099300230E9104937F215A
:1021C4000A98FEF709F80B9B7F21C6180998FEF7B9
:1021D40003F80C9BC518994B1C68994B1F68231373
:1021E40007933B130893002E00DAA4E1002D00DAD4
:1021F4007CE1002E00D107E101232405240D059381
:102204000393802031004004FDF7E6FF0690802010
:1022140031004001001B0003FDF7DEFF0400002D28
:1022240000D1F7E03E05360D002D00DC6AE1802088
:1022340029004004FDF7D0FF070080202900400159
:10224400801B0003FDF7C8FF20227E49844200DB87
:10225400E3E0059D069BAC460025E418079B634418
:102264000793079B089E3343072B00D9DDE0F30057
:10227400079ECB189B5D002B02D1013A002AE5D1C1
:10228400C11B002D01D1069BE11A96203F2906DDD2
:1022940096200003FDF7A0FF962800DD96209623E4
:1022A4001E1A76108019041CC0B2984201D96A4BD8
:1022B4001C78B823013D9B001D40D6235B01ED181B
:1022C400664BB6B2E4B203220021049800933300B3
:1022D400FFF772F8A31B0322310004989BB2009508
:1022E400FFF76AF896235E4A1B1B9BB200922100FB
:1022F40003220498FFF760F80F9A0A9B94460E9AFB
:10230400634494460A93099B63440993049B0333EF
:102314009BB20493812B00D051E7FA214B4B8900E7
:102324005C6A0D9B10ADE41AA4B22000FDF7CAFE4E
:102334000A2180B2FDF74CFF30312970200064215E
:10234400FDF7C0FE0A2180B2FDF742FF303169700B
:1023540020000A21FDF7B6FE0A2180B2FDF738FFFE
:102364003031A97020000A21FDF732FF0023142721
:102374003031E9702B710395039B1B78002B00D03F
:1023840072E013B0F0BD0399396004993160DDE661
:1023940003225242EBE6FFF765F9264C002802D0EF
:1023A4002378033B2370FFF767F9002802D02378D2
:1023B40003332370FFF76AF9002800D1DAE62478A2
:1023C4001D4922004032D2B264001D4D5200525EBB
:1023D4001A4E615E2B68306889101A4C9210C91825
:1023E4001B131218DB001713E318DB5D002B01D15C
:1023F400100032600B13DB000013E418235C002B85
:1024040000D0B7E62960B5E60123164C0393059383
:10241400069404E71348070016E7039D089BAC469F
:1024240063440125C01908931BE700250D492FE7D4
:102434000200002040020020AE2F000848020020C5
:10244400440200206E2F00084C020020002C0140A2
:1024540074F5FFFF8C0A00006D2F0008E191000065
:1024640045290000FFFFFF7F039A01320392202BCE
:1024740001D1083780E71A00303AD1B2092924D8AB
:1024840005245443334BE41800250026635D04936C
:102494000223049A9B1B1A411300012213402E4A63
:1024A400013B13402D4A29009B1800930123B819BE
:1024B40096311A0089B280B20136FEF77DFF032EF1
:1024C400E6D10135052DE0D1D3E71A00413AD1B266
:1024D400192903D805245443214BD4E7613BDAB2CC
:1024E4001C4C192AD0D805245C43F5E70123002E9F
:1024F40025D101231B4C5B423E0503930233360D69
:1025040006940593FF2029000006FDF765FE694245
:102514000700300396E601235B422405059302334A
:10252400240D0393FF2031000006FDF755FE714290
:102534000690200370E6002DEDDA01235B4205933B
:10254400012324055B42240D0393002E00DD58E68D
:10255400E8E7C046AE3100082631FFFF1FF800004F
:10256400E0310008FFFFFF7F014B18807047C04631
:102574005C0200200423F0B5704D714FAA6985B048
:102584001343AB613A686F4B6F491A4088235B0170
:1025940013433B605023BB616B6A6C4A6C4C136001
:1025A4006C4A6D4E11605B0642D56C4B1A686C4BDD
:1025B4009A423DD16B4B6C4A23606C4B23600623DB
:1025C40013606B4B33606B4B23602360FEF74EFF4D
:1025D4003B6869490B403B608023FA68DB010A4091
:1025E4001343FB600223EA69002113430722EB61D2
:1025F400624B19609A62624ADA6201225A61196175
:102604001A605C4B32252360FDF7BEFF0120FDF705
:1026140015FF80223B691342F3D1013DADB2002D79
:10262400F4D113003A691A4258D000234B4A13607C
:102634004C4B4D4A23604D4B2360062313604C4B97
:1026440033604C4B1D0023602360FEF70FFFFDF742
:10265400D1FEC8202560FDF7F1FE2560FFF720F8C4
:10266400FEF72EFD0120FEF7F7FEFDF705FF3823E8
:10267400444D2A689A43303B13432B60FEF704F819
:10268400FEF7FCFEFEF728FF00F084F93E4A536A89
:10269400536A3E4A1380002302920193354B236010
:1026A400394B5E6A3A4BB6B21A88002A19D0029B9B
:1026B4001B88F31A9BB29A4213D840222B68142029
:1026C40093432B605023BB61FDF7B8FE234B244A90
:1026D4001A60284B2360FDF757FFFAE7254A22606A
:1026E400A0E7FEF73FFFFEF785FF002801D0029B1D
:1026F4001E80284E3388002B18D0274B03931B6869
:10270400002B13D0FEF784FF338883420ED8234E68
:102714003378002B04D1039B1B6898470123337043
:10272400019800F091FA019B0133B6E7FEF762FFCE
:102734000028F5D1194B1870F2E7C046001002408A
:1027440000080140FFCCFFFFEFBEADDEF01F00200C
:1027540000300040F41F002008300040F81F002023
:10276400003E55D0CCCC000004300040555500004C
:10277400FF0F0000AAAA0000FF3FFFFF0004004073
:10278400E703000000200140002C01405A02002011
:102794005C02002058020020540200205002002055
:1027A40010B50020FEF72AFC10BD000073B500250B
:1027B4000024164AA0B2135751575B182919C9B2FD
:1027C400515604345B18DBB219003231C9B2565C7D
:1027D400383BDBB2D35C32000A333232DBB2D2B2E2
:1027E4009B0952091436D2025B01F6B213437609EF
:1027F400334300930223A9B21A00FEF7DDFD802CB7
:10280400D7D10435A02DD3D173BDC04662320008A0
:10281400F0B50D0087B0029004920593029B1B78DB
:10282400002B01D107B0F0BD029A01320292202B95
:1028340001D10835F2E71A00303AD1B2092922D879
:1028440005245443184BE41800260027A35D039382
:102854000223039ADB1B1A41130001221340059A39
:102864005B42134000930123049AE819911989B239
:102874001A0080B20137FEF79FFD032FE8D101361D
:10288400052EE2D1D5E71A00413AD1B2192903D86D
:1028940005245443054BD6E7613BDAB2024C192AAE
:1028A400D2D805245C43F5E762330008943300086A
:1028B4000A2213B52E4B11002E48FFF7A9FF2C4B0B
:1028C40014220A212C48FFF7A3FF2C4C2368002B69
:1028D40045D1C0239B0100935E2210232C210D209F
:1028E400FEF76AFD2368012B3BD1C0239B010093B3
:1028F4005E22102347210D20FEF75EFD2368022B84
:1029040031D1C0239B0100935E22102362210D204C
:10291400FEF752FD2368032B27D1C0239B010093AC
:102924005E2210237D210D20FEF746FD3222142164
:1029340013480F4BFFF76CFF4D22142111480C4B29
:10294400FFF766FF682214210F48094BFFF760FF69
:10295400832214210D48064BFFF75AFF13BD0C4B7D
:10296400B9E70B4BC3E70A4BCDE7094BD7E7C046A2
:10297400FFFF00007F2E00088C2E0008600200205C
:10298400982E00089D2E0008A52E0008AE2E0008E3
:102994001FF8000010B5FDF72DFD3220FDF74EFDA8
:1029A4000848FFF7E1FD00210520FFF70FFB064B68
:1029B4001860FFF7F5FEFFF7F9FEFFF779FFFFF761
:1029C40093FA10BDC0D4000060020020F0B58BB0B3
:1029D400FEF730FEFA2189000500FDF773FB0A219A
:1029E40080B2FDF7F5FB02AC303121702800642180
:1029F400FDF768FB0A2180B2FDF7EAFB3031617014
:102A040028000A21FDF75EFB0A2180B2FDF7E0FBF6
:102A14003031A17028000A21FDF7DAFBF8230026E3
:102A240030311E221B022000E1700A212671FFF7BB
:102A3400EFFEFEF769FEFA2189000500FDF742FB6F
:102A44000A2180B2FDF7C4FB06AC303121702800A6
:102A54006421FDF737FB0A2180B2FDF7B9FB303161
:102A6400617028000A21FDF72DFB0A2180B2FDF7D1
:102A7400AFFB3031A17028000A21FDF7A9FB3031EA
:102A84001E222000E170674B2D212671FFF7C0FE46
:102A9400654B6649DD6A6C462800FDF713FB0A2185
:102AA400FDF796FB30312170FA2128008900FDF7EB
:102AB40009FB0A21FDF78CFB303161702800642189
:102AC400FDF700FB0A21FDF783FB3031A1702800DC
:102AD4000A21FDF7F7FA0A21FDF77AFB3031E1709C
:102AE40028000A21FDF774FBFC2330311E22DB0091
:102AF4002171684650216671FFF78AFEFEF7A8FD32
:102B04000500FEF79BFD0400FEF77CFD484F494E8F
:102B140000282FD0484B1B78002B2BD1002D13D02D
:102B24003B78002B10D1454A1168013103295AD84A
:102B34000B0005201360FFF769FAFFF7B9FEAF2019
:102B440014218000FFF7A4F9002C13D03378002B54
:102B540010D13A4B03211A68002A00D0511E0520D7
:102B64001960FFF753FAFFF7A3FEFA20142140007F
:102B7400FFF78EF93D703470FEF77EFD00280DD00E
:102B84002D4B1A78002A09D12D4B1978002905D02C
:102B9400FA20322100011A70FFF77AF9FEF762FD7C
:102BA40000280BD0244B264A1B7811780B4305D1FF
:102BB4000133322123481370FFF76AF9FEF766FDEB
:102BC400002818D01C4C2378002B14D1FA20322171
:102BD400C000FFF75DF9194B186803280BD8FDF7FF
:102BE40067FA040C131A1900A3E701232370FFF7F3
:102BF400D7FDFDF789FD0BB0F0BD02232370FFF76D
:102C0400CFFDFFF741FAF6E703232370FFF7C8FD72
:102C1400FDF79AFFEFE704232370FFF7C1FDFEF7EA
:102C2400B3FEE8E71FF80000002C01401027000065
:102C34005F0200205E020020640200206002002087
:102C4400010000207017000070B50400FEF7F6FCC8
:102C5400184D00282AD0FEF7DBFCFA2826D92B7859
:102C6400002B1BD12000FFF7B1FE2B78012B02D1E2
:102C74002000FDF7B3FD2B78022B02D12000FFF7D3
:102C840023FA2B78032B02D12000FDF78BFF2B783E
:102C9400042B02D12000FEF7B1FE70BD00232B707F
:102CA400FFF77EFDFFF782FDFFF702FE2B78002B76
:102CB400DBD1D7E7640200200705050507020602F9
:102CC40002070701070407070107010705050701B4
:102CD40001070407010707040705070701010101AC
:102CE4000705070507070507010707050705050683
:102CF4000506050607040404070705050507070478
:102D04000704070704070404070405050705050766
:102D1400050507020202070101010507050604066D
:102D24000504040404070507070505050707070547
:102D34000705050507070507040407050507010737
:102D44000507060507040701070702020202050535
:102D54000505070505050202050507070505050222
:102D640005050505020202070102040700060C120C
:102D7400181E24292F353A3F44494E53575B5F634D
:102D8400666A6D70727577797B7C7E7F7F7F7F7FCB
:102D94007E7C7B79777572706D6A66635F5B57536F
:102DA4004E49443F3A352F29241E18120C0600FAC6
:102DB400F4EEE8E2DCD7D1CBC6C1BCB7B2ADA9A56D
:102DC400A19D9A9693908E8B898785848281818137
:102DD40081818182848587898B8E9093969A9DA127
:102DE400A5A9ADB2B7BCC1C6CBD1D7DCE2E8EEF43D
:102DF400FA000000000000000000000000000000D5
:102E040000000000000000000000000000000000BE
:102E140000000000000000000000000000000000AE
:102E2400000000000000000000000000000000009E
:102E3400000000000000000000000000000000008E
:102E4400000000000000000000000000000000007E
:102E5400000000000000000000000000000000006E
:102E640000000000000000000000000032006C655B
:102E740076656C200053434F5245004D61696E20C6
:102E84004D656E75207631004D6164652062792050
:102E94006A6F3300506F6E670052617963617374B7
:102EA40000477261706869637300427269636B20E2
:102EB40042726B7200070505050702060202070746
:102EC40001070407070107010705050701010704B6
:102ED40007010707040705070701010101070507A3
:102EE4000507070507010707050705050605060584
:102EF4000607040404070705050507070407040774
:102F04000704070404070405050705050705050765
:102F1400020202070101010507050604060504046F
:102F24000404070507070505050707070507050541
:102F34000507070507040407050507010705070634
:102F44000507040701070702020202050505050734
:102F54000505050202050507070505050205050522
:102F640005020202070102040796010101010101A1
:102F74000101010000000000000101000101000145
:102F84000001010001000000000101000000010037
:102F94000001010001000000000101000000000028
:102FA4000001010101010101010100006500C900E6
:102FB4002D019101F5015902BC021F038103E303B2
:102FC4004404A50405056405C2051F067C06D7064E
:102FD40032078B07E3073A088F08E40837098809A2
:102FE400D809260A730ABF0A080B500B970BDB0B90
:102FF4001E0C5E0C9D0CDA0C150D4E0D850DB90DD5
:10300400EC0D1C0E4B0E770EA10EC80EEE0E110F1A
:10301400310F500F6C0F850F9C0FB10FC40FD40FDD
:10302400E10FEC0FF50FFB0FFF0F0010FF0FFB0F6D
:10303400F50FEC0FE10FD40FC40FB10F9C0F850FE8
:103044006C0F500F310F110FEE0EC80EA10E770E3C
:103054004B0E1C0EEC0DB90D850D4E0D150DDA0C35
:103064009D0C5E0C1E0CDB0B970B500B080BBF0A60
:10307400730A260AD80988093709E4088F083A0828
:10308400E3078B073207D7067C061F06C2056405D3
:103094000505A5044404E30381031F03BC0259028C
:1030A400F50191012D01C900650000009BFF37FF68
:1030B400D3FE6FFE0BFEA7FD44FDE1FC7FFC1DFC6F
:1030C400BCFB5BFBFBFA9CFA3EFAE1F984F929F9B3
:1030D400CEF875F81DF8C6F771F71CF7C9F678F63F
:1030E40028F6DAF58DF541F5F8F4B0F469F425F431
:1030F400E2F3A2F363F326F3EBF2B2F27BF247F2CC
:1031040014F2E4F1B5F189F15FF138F112F1EFF065
:10311400CFF0B0F094F07BF064F04FF03CF02CF082
:103124001FF014F00BF005F001F000F001F005F0D1
:103134000BF014F01FF02CF03CF04FF064F07BF037
:1031440094F0B0F0CFF0EFF012F138F15FF189F1C3
:10315400B5F1E4F114F247F27BF2B2F2EBF226F3AA
:1031640063F3A2F3E2F325F469F4B0F4F8F441F55F
:103174008DF5DAF528F678F6C9F61CF771F7C6F777
:103184001DF875F8CEF829F984F9E1F93EFA9CFAAC
:10319400FBFA5BFBBCFB1DFC7FFCE1FC44FDA7FDD3
:1031A4000BFE6FFED3FE37FF9BFF070505050702E5
:1031B40006020207070107040707010701070505BF
:1031C40007010107040701070704070507070101B1
:1031D4000101070507050707050701070705070597
:1031E4000506050605060704040407070505050783
:1031F4000704070407070407040407040505070573
:103204000507050507020202070101010507050676
:103214000406050404040407050707050505070754
:10322400070507050505070705070404070505073E
:103234000107050706050704070107070202020242
:10324400050505050705050502020505070705052A
:10325400050205050505020202070102040700062E
:103264000C12181E24292F353A3F44494E53575BFC
:103274005F63666A6D70727577797B7C7E7F7F7F12
:103284007F7F7E7C7B79777572706D6A66635F5B26
:1032940057534E49443F3A352F29241E18120C0621
:1032A40000FAF4EEE8E2DCD7D1CBC6C1BCB7B2ADCC
:1032B400A9A5A19D9A9693908E8B898785848281F6
:1032C400818181818182848587898B8E9093969A6E
:1032D4009DA1A5A9ADB2B7BCC1C6CBD1D7DCE2E8EC
:1032E400EEF4FA00000000000000000000000000FE
:1032F40000000000000000000000000000000000CA
:1033040000000000000000000000000000000000B9
:1033140000000000000000000000000000000000A9
:103324000000000000000000000000000000000099
:103334000000000000000000000000000000000089
:103344000000000000000000000000000000000079
:10335400000000000000000000000000000007055D
:10336400050507020602020707010704070701070C
:1033740001070505070101070407010707040705FD
:1033840007070101010107050705070705070107ED
:1033940007050705050605060506070404040707CF
:1033A40005050507070407040707040704040704C1
:1033B40005050705050705050702020207010101C6
:1033C40005070506040605040404040705070705A4
:1033D400050507070705070505050707050704048D
:1033E4000705050701070507060507040701070781
:1033F4000202020205050505070505050202050589
:103404000707050505020505050502020207010275
:0434140004070000A9
:0434180001010100AD
:04000005080003B537
:00000001FF
